{"abi":[{"type":"constructor","inputs":[{"name":"_stakedMON","type":"address","internalType":"address"}],"stateMutability":"nonpayable"},{"type":"receive","stateMutability":"payable"},{"type":"function","name":"allowance","inputs":[{"name":"owner","type":"address","internalType":"address"},{"name":"spender","type":"address","internalType":"address"}],"outputs":[{"name":"","type":"uint256","internalType":"uint256"}],"stateMutability":"view"},{"type":"function","name":"approve","inputs":[{"name":"spender","type":"address","internalType":"address"},{"name":"value","type":"uint256","internalType":"uint256"}],"outputs":[{"name":"","type":"bool","internalType":"bool"}],"stateMutability":"nonpayable"},{"type":"function","name":"balanceOf","inputs":[{"name":"account","type":"address","internalType":"address"}],"outputs":[{"name":"","type":"uint256","internalType":"uint256"}],"stateMutability":"view"},{"type":"function","name":"batchUpdateUserWeights","inputs":[{"name":"_users","type":"address[]","internalType":"address[]"},{"name":"weights","type":"uint256[]","internalType":"uint256[]"}],"outputs":[],"stateMutability":"nonpayable"},{"type":"function","name":"decimals","inputs":[],"outputs":[{"name":"","type":"uint8","internalType":"uint8"}],"stateMutability":"view"},{"type":"function","name":"depositNative","inputs":[{"name":"receiver","type":"address","internalType":"address"}],"outputs":[{"name":"shares","type":"uint256","internalType":"uint256"}],"stateMutability":"payable"},{"type":"function","name":"epochBaseline","inputs":[],"outputs":[{"name":"","type":"uint256","internalType":"uint256"}],"stateMutability":"view"},{"type":"function","name":"epochTotalSupply","inputs":[],"outputs":[{"name":"","type":"uint256","internalType":"uint256"}],"stateMutability":"view"},{"type":"function","name":"getUsers","inputs":[],"outputs":[{"name":"","type":"address[]","internalType":"address[]"}],"stateMutability":"view"},{"type":"function","name":"name","inputs":[],"outputs":[{"name":"","type":"string","internalType":"string"}],"stateMutability":"view"},{"type":"function","name":"owner","inputs":[],"outputs":[{"name":"","type":"address","internalType":"address"}],"stateMutability":"view"},{"type":"function","name":"previewDeposit","inputs":[{"name":"assets","type":"uint256","internalType":"uint256"}],"outputs":[{"name":"shares","type":"uint256","internalType":"uint256"}],"stateMutability":"view"},{"type":"function","name":"previewMint","inputs":[{"name":"shares","type":"uint256","internalType":"uint256"}],"outputs":[{"name":"assets","type":"uint256","internalType":"uint256"}],"stateMutability":"view"},{"type":"function","name":"previewRedeem","inputs":[{"name":"shares","type":"uint256","internalType":"uint256"}],"outputs":[{"name":"assets","type":"uint256","internalType":"uint256"}],"stateMutability":"view"},{"type":"function","name":"previewWithdraw","inputs":[{"name":"assets","type":"uint256","internalType":"uint256"}],"outputs":[{"name":"shares","type":"uint256","internalType":"uint256"}],"stateMutability":"view"},{"type":"function","name":"renounceOwnership","inputs":[],"outputs":[],"stateMutability":"nonpayable"},{"type":"function","name":"stakedMON","inputs":[],"outputs":[{"name":"","type":"address","internalType":"contract IStakedMON"}],"stateMutability":"view"},{"type":"function","name":"symbol","inputs":[],"outputs":[{"name":"","type":"string","internalType":"string"}],"stateMutability":"view"},{"type":"function","name":"totalMON","inputs":[],"outputs":[{"name":"","type":"uint256","internalType":"uint256"}],"stateMutability":"view"},{"type":"function","name":"totalSupply","inputs":[],"outputs":[{"name":"","type":"uint256","internalType":"uint256"}],"stateMutability":"view"},{"type":"function","name":"totalshMON","inputs":[],"outputs":[{"name":"","type":"uint256","internalType":"uint256"}],"stateMutability":"view"},{"type":"function","name":"transfer","inputs":[{"name":"to","type":"address","internalType":"address"},{"name":"value","type":"uint256","internalType":"uint256"}],"outputs":[{"name":"","type":"bool","internalType":"bool"}],"stateMutability":"nonpayable"},{"type":"function","name":"transferFrom","inputs":[{"name":"from","type":"address","internalType":"address"},{"name":"to","type":"address","internalType":"address"},{"name":"value","type":"uint256","internalType":"uint256"}],"outputs":[{"name":"","type":"bool","internalType":"bool"}],"stateMutability":"nonpayable"},{"type":"function","name":"transferOwnership","inputs":[{"name":"newOwner","type":"address","internalType":"address"}],"outputs":[],"stateMutability":"nonpayable"},{"type":"function","name":"updateEpoch","inputs":[],"outputs":[],"stateMutability":"nonpayable"},{"type":"function","name":"updateUserWeight","inputs":[{"name":"user","type":"address","internalType":"address"},{"name":"weight","type":"uint256","internalType":"uint256"}],"outputs":[],"stateMutability":"nonpayable"},{"type":"function","name":"userExists","inputs":[{"name":"","type":"address","internalType":"address"}],"outputs":[{"name":"","type":"bool","internalType":"bool"}],"stateMutability":"view"},{"type":"function","name":"userWeights","inputs":[{"name":"","type":"address","internalType":"address"}],"outputs":[{"name":"","type":"uint256","internalType":"uint256"}],"stateMutability":"view"},{"type":"function","name":"users","inputs":[{"name":"","type":"uint256","internalType":"uint256"}],"outputs":[{"name":"","type":"address","internalType":"address"}],"stateMutability":"view"},{"type":"function","name":"withdrawNative","inputs":[{"name":"shares","type":"uint256","internalType":"uint256"},{"name":"receiver","type":"address","internalType":"address"},{"name":"owner","type":"address","internalType":"address"}],"outputs":[{"name":"monAmount","type":"uint256","internalType":"uint256"}],"stateMutability":"nonpayable"},{"type":"event","name":"Approval","inputs":[{"name":"owner","type":"address","indexed":true,"internalType":"address"},{"name":"spender","type":"address","indexed":true,"internalType":"address"},{"name":"value","type":"uint256","indexed":false,"internalType":"uint256"}],"anonymous":false},{"type":"event","name":"EpochBaselineUpdated","inputs":[{"name":"oldBaseline","type":"uint256","indexed":false,"internalType":"uint256"},{"name":"newBaseline","type":"uint256","indexed":false,"internalType":"uint256"},{"name":"newTotalSupply","type":"uint256","indexed":false,"internalType":"uint256"}],"anonymous":false},{"type":"event","name":"EpochUpdated","inputs":[{"name":"newEpochBaseline","type":"uint256","indexed":false,"internalType":"uint256"},{"name":"newEpochTotalSupply","type":"uint256","indexed":false,"internalType":"uint256"}],"anonymous":false},{"type":"event","name":"OwnershipTransferred","inputs":[{"name":"previousOwner","type":"address","indexed":true,"internalType":"address"},{"name":"newOwner","type":"address","indexed":true,"internalType":"address"}],"anonymous":false},{"type":"event","name":"Staked","inputs":[{"name":"user","type":"address","indexed":true,"internalType":"address"},{"name":"amount","type":"uint256","indexed":false,"internalType":"uint256"}],"anonymous":false},{"type":"event","name":"Transfer","inputs":[{"name":"from","type":"address","indexed":true,"internalType":"address"},{"name":"to","type":"address","indexed":true,"internalType":"address"},{"name":"value","type":"uint256","indexed":false,"internalType":"uint256"}],"anonymous":false},{"type":"event","name":"Unstaked","inputs":[{"name":"user","type":"address","indexed":true,"internalType":"address"},{"name":"amount","type":"uint256","indexed":false,"internalType":"uint256"}],"anonymous":false},{"type":"event","name":"UserWeightUpdated","inputs":[{"name":"user","type":"address","indexed":true,"internalType":"address"},{"name":"newWeight","type":"uint256","indexed":false,"internalType":"uint256"}],"anonymous":false},{"type":"error","name":"ERC20InsufficientAllowance","inputs":[{"name":"spender","type":"address","internalType":"address"},{"name":"allowance","type":"uint256","internalType":"uint256"},{"name":"needed","type":"uint256","internalType":"uint256"}]},{"type":"error","name":"ERC20InsufficientBalance","inputs":[{"name":"sender","type":"address","internalType":"address"},{"name":"balance","type":"uint256","internalType":"uint256"},{"name":"needed","type":"uint256","internalType":"uint256"}]},{"type":"error","name":"ERC20InvalidApprover","inputs":[{"name":"approver","type":"address","internalType":"address"}]},{"type":"error","name":"ERC20InvalidReceiver","inputs":[{"name":"receiver","type":"address","internalType":"address"}]},{"type":"error","name":"ERC20InvalidSender","inputs":[{"name":"sender","type":"address","internalType":"address"}]},{"type":"error","name":"ERC20InvalidSpender","inputs":[{"name":"spender","type":"address","internalType":"address"}]},{"type":"error","name":"OwnableInvalidOwner","inputs":[{"name":"owner","type":"address","internalType":"address"}]},{"type":"error","name":"OwnableUnauthorizedAccount","inputs":[{"name":"account","type":"address","internalType":"address"}]},{"type":"error","name":"ReentrancyGuardReentrantCall","inputs":[]}],"bytecode":{"object":"0x60a060405234801562000010575f80fd5b50604051620020eb380380620020eb83398101604081905262000033916200019b565b336040518060400160405280600a81526020016923b0b6b136329026a7a760b11b8152506040518060400160405280600481526020016333a6a7a760e11b81525081600390816200008591906200026a565b5060046200009482826200026a565b5050506001600160a01b038116620000c657604051631e4fbdf760e01b81525f60048201526024015b60405180910390fd5b620000d1816200014a565b5060016006556001600160a01b0381166200012f5760405162461bcd60e51b815260206004820181905260248201527f7374616b65644d4f4e20616464726573732063616e6e6f74206265207a65726f6044820152606401620000bd565b6001600160a01b03166080525f600a819055600b5562000332565b600580546001600160a01b038381166001600160a01b0319831681179093556040519116919082907f8be0079c531659141344cd1fd0a4f28419497f9722a3daafe3b4186f6b6457e0905f90a35050565b5f60208284031215620001ac575f80fd5b81516001600160a01b0381168114620001c3575f80fd5b9392505050565b634e487b7160e01b5f52604160045260245ffd5b600181811c90821680620001f357607f821691505b6020821081036200021257634e487b7160e01b5f52602260045260245ffd5b50919050565b601f82111562000265575f81815260208120601f850160051c81016020861015620002405750805b601f850160051c820191505b8181101562000261578281556001016200024c565b5050505b505050565b81516001600160401b03811115620002865762000286620001ca565b6200029e81620002978454620001de565b8462000218565b602080601f831160018114620002d4575f8415620002bc5750858301515b5f19600386901b1c1916600185901b17855562000261565b5f85815260208120601f198616915b828110156200030457888601518255948401946001909101908401620002e3565b50858210156200032257878501515f19600388901b60f8161c191681555b5050505050600190811b01905550565b608051611d84620003675f395f81816104d80152818161083a01528181610bb90152818161115b01526112080152611d845ff3fe6080604052600436106101c7575f3560e01c80635dfd244c116100f2578063b3d7f6b911610092578063e913ff9811610062578063e913ff9814610519578063ef8b30f714610538578063f2fde38b14610557578063fccfe94c14610576575f80fd5b8063b3d7f6b914610494578063b9d27781146104b3578063c5bde1f0146104c7578063dd62ed3e146104fa575f80fd5b80638da5cb5b116100cd5780638da5cb5b1461043057806395d89b411461044d578063a9059cbb14610461578063afed7bc914610480575f80fd5b80635dfd244c146103d357806370a08231146103e8578063715018a61461041c575f80fd5b80632126e91e11610168578063365b98b211610138578063365b98b21461033c57806336f4fb02146103735780634cdad50614610389578063556a6d8a146103a8575f80fd5b80632126e91e146102d057806323b872dd146102ef578063313ce5671461030e57806333bb7f9114610329575f80fd5b80630a28a477116101a35780630a28a4771461024c5780630e666e491461027957806318160ddd146102a75780631ce72170146102bb575f80fd5b8062ce8e3e146101d257806306fdde03146101fc578063095ea7b31461021d575f80fd5b366101ce57005b5f80fd5b3480156101dd575f80fd5b506101e6610595565b6040516101f391906119d0565b60405180910390f35b348015610207575f80fd5b506102106105f5565b6040516101f39190611a1c565b348015610228575f80fd5b5061023c610237366004611a7d565b61067c565b60405190151581526020016101f3565b348015610257575f80fd5b5061026b610266366004611aa5565b610695565b6040519081526020016101f3565b348015610284575f80fd5b5061023c610293366004611abc565b60096020525f908152604090205460ff1681565b3480156102b2575f80fd5b5060025461026b565b3480156102c6575f80fd5b5061026b600b5481565b3480156102db575f80fd5b5061026b6102ea366004611ad5565b6106fd565b3480156102fa575f80fd5b5061023c610309366004611b0e565b610b19565b348015610319575f80fd5b50604051601281526020016101f3565b61026b610337366004611abc565b610b3c565b348015610347575f80fd5b5061035b610356366004611aa5565b610dac565b6040516001600160a01b0390911681526020016101f3565b34801561037e575f80fd5b50610387610dd4565b005b348015610394575f80fd5b5061026b6103a3366004611aa5565b6110e0565b3480156103b3575f80fd5b5061026b6103c2366004611abc565b60076020525f908152604090205481565b3480156103de575f80fd5b5061026b600a5481565b3480156103f3575f80fd5b5061026b610402366004611abc565b6001600160a01b03165f9081526020819052604090205490565b348015610427575f80fd5b50610387611117565b34801561043b575f80fd5b506005546001600160a01b031661035b565b348015610458575f80fd5b50610210611128565b34801561046c575f80fd5b5061023c61047b366004611a7d565b611137565b34801561048b575f80fd5b5061026b611144565b34801561049f575f80fd5b5061026b6104ae366004611aa5565b6111d2565b3480156104be575f80fd5b5061026b611205565b3480156104d2575f80fd5b5061035b7f000000000000000000000000000000000000000000000000000000000000000081565b348015610505575f80fd5b5061026b610514366004611b47565b61125b565b348015610524575f80fd5b50610387610533366004611bc0565b611285565b348015610543575f80fd5b5061026b610552366004611aa5565b6113dc565b348015610562575f80fd5b50610387610571366004611abc565b611409565b348015610581575f80fd5b50610387610590366004611a7d565b611446565b606060088054806020026020016040519081016040528092919081815260200182805480156105eb57602002820191905f5260205f20905b81546001600160a01b031681526001909101906020018083116105cd575b5050505050905090565b60606003805461060490611c27565b80601f016020809104026020016040519081016040528092919081815260200182805461063090611c27565b80156105eb5780601f10610652576101008083540402835291602001916105eb565b820191905f5260205f20905b81548152906001019060200180831161065e57509395945050505050565b5f336106898185856114a6565b60019150505b92915050565b5f8061069f611205565b90505f6106ab60025490565b90505f821180156106bb57505f81115b6106e05760405162461bcd60e51b81526004016106d790611c5f565b60405180910390fd5b816106eb8286611c9b565b6106f59190611cb2565b949350505050565b5f6107066114b8565b5f84116107555760405162461bcd60e51b815260206004820152601860248201527f43616e6e6f74207769746864726177203020736861726573000000000000000060448201526064016106d7565b5f61075f60025490565b90505f61076a611144565b90505f821161078b5760405162461bcd60e51b81526004016106d790611c5f565b5f826107978389611c9b565b6107a19190611cb2565b90505f81116107e85760405162461bcd60e51b8152602060048201526013602482015272496e73756666696369656e742061737365747360681b60448201526064016106d7565b336001600160a01b0386161461081a575f610803863361125b565b90505f1981146108185761081886338a6114e2565b505b6108248588611545565b6040516303d1689d60e11b8152600481018290527f00000000000000000000000000000000000000000000000000000000000000006001600160a01b03169063b460af949082906307a2d13a90602401602060405180830381865afa15801561088f573d5f803e3d5ffd5b505050506040513d601f19601f820116820180604052508101906108b39190611cd1565b6040516001600160e01b031960e084901b1681526004810191909152306024820181905260448201526064016020604051808303815f875af11580156108fb573d5f803e3d5ffd5b505050506040513d601f19601f8201168201806040525081019061091f9190611cd1565b9350846001600160a01b03167f0f5bb82176feb1b5e747e28471aa92156a04d9f3ab9f45f28e2d704232b93f758560405161095c91815260200190565b60405180910390a25f866001600160a01b0316856040515f6040518083038185875af1925050503d805f81146109ad576040519150601f19603f3d011682016040523d82523d5f602084013e6109b2565b606091505b5050905080610a035760405162461bcd60e51b815260206004820152601c60248201527f4e617469766520746f6b656e207472616e73666572206661696c65640000000060448201526064016106d7565b6001600160a01b0386165f90815260208190526040902054158015610a3f57506001600160a01b0386165f9081526009602052604090205460ff165b15610a4d57610a4d8661157d565b600a5415610b04575f610a608986611ce8565b610a728a670de0b6b3a7640000611c9b565b610a7c9190611cb2565b90505f670de0b6b3a764000082600a54610a969190611c9b565b610aa09190611cb2565b600a54909150610ab08282611cfb565b600a55600254600b819055600a546040805184815260208101929092528101919091527f94539a67a2d2833b72450db379dcc24553051fa853d5a4f3958953787b3b1ffc9060600160405180910390a15050505b50505050610b126001600655565b9392505050565b5f33610b268582856114e2565b610b318585856116c9565b506001949350505050565b5f610b456114b8565b3480610b935760405162461bcd60e51b815260206004820152601760248201527f43616e6e6f74206465706f73697420302061737365747300000000000000000060448201526064016106d7565b604051636e553f6560e01b8152600481018290523060248201525f906001600160a01b037f00000000000000000000000000000000000000000000000000000000000000001690636e553f6590849060440160206040518083038185885af1158015610c01573d5f803e3d5ffd5b50505050506040513d601f19601f82011682018060405250810190610c269190611cd1565b90505f610c3260025490565b90505f610c3d611144565b9050811580610c4a575080155b15610c5757829450610c6f565b80610c628385611c9b565b610c6c9190611cb2565b94505b610c798686611726565b6001600160a01b0386165f9081526009602052604090205460ff16610d3b576008805460018082019092557ff3f7a9fe364faab93b216da50a3214154f22a0a2b415b23a84c8169e8b636ee30180546001600160a01b0319166001600160a01b0389169081179091555f818152600960209081526040808320805460ff191690951790945560078152838220829055925190815290917f7ca6e49b5dd57ed6bb41185c3183b042bbbbb1ba4b421fff5cfa24619ae1a8ee910160405180910390a25b856001600160a01b03167f9e71bc8eea02a63969f509818f2dafb9254532904319f9dbda79b67bd34a5f3d84604051610d7691815260200190565b60405180910390a2600b545f03610d9957610d8f611205565b600a55600254600b555b50505050610da76001600655565b919050565b60088181548110610dbb575f80fd5b5f918252602090912001546001600160a01b0316905081565b610ddc61175a565b610de46114b8565b5f610ded611205565b9050600a548111610e4c5760405162461bcd60e51b815260206004820152602360248201527f4e6f207265776172647320617661696c61626c6520666f7220746869732065706044820152620dec6d60eb1b60648201526084016106d7565b5f600a5482610e5b9190611cfb565b90505f805b600854811015610f25575f60088281548110610e7e57610e7e611d0e565b5f9182526020822001546001600160a01b03169150610eb1826001600160a01b03165f9081526020819052604090205490565b9050805f03610ec1575050610f13565b5f600b54600a5483610ed39190611c9b565b610edd9190611cb2565b6001600160a01b0384165f90815260076020526040902054909150610f03908290611c9b565b610f0d9086611ce8565b94505050505b80610f1d81611d22565b915050610e60565b505f8111610f755760405162461bcd60e51b815260206004820181905260248201527f4e6f20656c696769626c65206465706f7369747320666f72207265776172647360448201526064016106d7565b5f5b60085481101561107c575f60088281548110610f9557610f95611d0e565b5f9182526020822001546001600160a01b03169150610fc8826001600160a01b03165f9081526020819052604090205490565b9050805f03610fd857505061106a565b5f600b54600a5483610fea9190611c9b565b610ff49190611cb2565b6001600160a01b0384165f908152600760205260408120549192509061101b908390611c9b565b90505f86611029838a611c9b565b6110339190611cb2565b90505f600a5482600b546110479190611c9b565b6110519190611cb2565b90508015611063576110638682611726565b5050505050505b8061107481611d22565b915050610f77565b50611085611205565b600a55600254600b819055600a546040517fabb37912485bfb13380247be2f4101619759991c9a13ef282eeb05108378b579926110c9928252602082015260400190565b60405180910390a15050506110de6001600655565b565b5f806110eb60025490565b90505f6110f6611205565b90505f82116106e05760405162461bcd60e51b81526004016106d790611c5f565b61111f61175a565b6110de5f611787565b60606004805461060490611c27565b5f336106898185856116c9565b6040516370a0823160e01b81523060048201525f907f00000000000000000000000000000000000000000000000000000000000000006001600160a01b0316906370a08231906024015b602060405180830381865afa1580156111a9573d5f803e3d5ffd5b505050506040513d601f19601f820116820180604052508101906111cd9190611cd1565b905090565b5f806111dd60025490565b90505f6111e8611205565b90508115806111f5575080155b156106e0578392505b5050919050565b5f7f00000000000000000000000000000000000000000000000000000000000000006001600160a01b03166307a2d13a61123d611144565b6040518263ffffffff1660e01b815260040161118e91815260200190565b6001600160a01b039182165f90815260016020908152604080832093909416825291909152205490565b61128d61175a565b8281146112dc5760405162461bcd60e51b815260206004820152601860248201527f4172726179206c656e67746873206d757374206d61746368000000000000000060448201526064016106d7565b5f5b838110156113d5578282828181106112f8576112f8611d0e565b9050602002013560075f87878581811061131457611314611d0e565b90506020020160208101906113299190611abc565b6001600160a01b0316815260208101919091526040015f205584848281811061135457611354611d0e565b90506020020160208101906113699190611abc565b6001600160a01b03167f7ca6e49b5dd57ed6bb41185c3183b042bbbbb1ba4b421fff5cfa24619ae1a8ee8484848181106113a5576113a5611d0e565b905060200201356040516113bb91815260200190565b60405180910390a2806113cd81611d22565b9150506112de565b5050505050565b5f806113e6611205565b90505f6113f260025490565b90508015806111f55750816106e0578392506111fe565b61141161175a565b6001600160a01b03811661143a57604051631e4fbdf760e01b81525f60048201526024016106d7565b61144381611787565b50565b61144e61175a565b6001600160a01b0382165f8181526007602052604090819020839055517f7ca6e49b5dd57ed6bb41185c3183b042bbbbb1ba4b421fff5cfa24619ae1a8ee9061149a9084815260200190565b60405180910390a25050565b6114b383838360016117d8565b505050565b6002600654036114db57604051633ee5aeb560e01b815260040160405180910390fd5b6002600655565b5f6114ed848461125b565b90505f19811461153f578181101561153157604051637dc7a0d960e11b81526001600160a01b038416600482015260248101829052604481018390526064016106d7565b61153f84848484035f6117d8565b50505050565b6001600160a01b03821661156e57604051634b637e8f60e11b81525f60048201526024016106d7565b611579825f836118aa565b5050565b6001600160a01b0381165f9081526009602052604090205460ff1661159f5750565b5f5b60085481101561157957816001600160a01b0316600882815481106115c8576115c8611d0e565b5f918252602090912001546001600160a01b0316036116b757600880546115f190600190611cfb565b8154811061160157611601611d0e565b5f91825260209091200154600880546001600160a01b03909216918390811061162c5761162c611d0e565b905f5260205f20015f6101000a8154816001600160a01b0302191690836001600160a01b03160217905550600880548061166857611668611d3a565b5f828152602080822083015f1990810180546001600160a01b03191690559092019092556001600160a01b038416825260078152604080832083905560099091529020805460ff191690555050565b806116c181611d22565b9150506115a1565b6001600160a01b0383166116f257604051634b637e8f60e11b81525f60048201526024016106d7565b6001600160a01b03821661171b5760405163ec442f0560e01b81525f60048201526024016106d7565b6114b38383836118aa565b6001600160a01b03821661174f5760405163ec442f0560e01b81525f60048201526024016106d7565b6115795f83836118aa565b6005546001600160a01b031633146110de5760405163118cdaa760e01b81523360048201526024016106d7565b600580546001600160a01b038381166001600160a01b0319831681179093556040519116919082907f8be0079c531659141344cd1fd0a4f28419497f9722a3daafe3b4186f6b6457e0905f90a35050565b6001600160a01b0384166118015760405163e602df0560e01b81525f60048201526024016106d7565b6001600160a01b03831661182a57604051634a1406b160e11b81525f60048201526024016106d7565b6001600160a01b038085165f908152600160209081526040808320938716835292905220829055801561153f57826001600160a01b0316846001600160a01b03167f8c5be1e5ebec7d5bd14f71427d1e84f3dd0314c0f7b2291e5b200ac8c7c3b9258460405161189c91815260200190565b60405180910390a350505050565b6001600160a01b0383166118d4578060025f8282546118c99190611ce8565b909155506119449050565b6001600160a01b0383165f90815260208190526040902054818110156119265760405163391434e360e21b81526001600160a01b038516600482015260248101829052604481018390526064016106d7565b6001600160a01b0384165f9081526020819052604090209082900390555b6001600160a01b0382166119605760028054829003905561197e565b6001600160a01b0382165f9081526020819052604090208054820190555b816001600160a01b0316836001600160a01b03167fddf252ad1be2c89b69c2b068fc378daa952ba7f163c4a11628f55a4df523b3ef836040516119c391815260200190565b60405180910390a3505050565b602080825282518282018190525f9190848201906040850190845b81811015611a105783516001600160a01b0316835292840192918401916001016119eb565b50909695505050505050565b5f6020808352835180828501525f5b81811015611a4757858101830151858201604001528201611a2b565b505f604082860101526040601f19601f8301168501019250505092915050565b80356001600160a01b0381168114610da7575f80fd5b5f8060408385031215611a8e575f80fd5b611a9783611a67565b946020939093013593505050565b5f60208284031215611ab5575f80fd5b5035919050565b5f60208284031215611acc575f80fd5b610b1282611a67565b5f805f60608486031215611ae7575f80fd5b83359250611af760208501611a67565b9150611b0560408501611a67565b90509250925092565b5f805f60608486031215611b20575f80fd5b611b2984611a67565b9250611b3760208501611a67565b9150604084013590509250925092565b5f8060408385031215611b58575f80fd5b611b6183611a67565b9150611b6f60208401611a67565b90509250929050565b5f8083601f840112611b88575f80fd5b50813567ffffffffffffffff811115611b9f575f80fd5b6020830191508360208260051b8501011115611bb9575f80fd5b9250929050565b5f805f8060408587031215611bd3575f80fd5b843567ffffffffffffffff80821115611bea575f80fd5b611bf688838901611b78565b90965094506020870135915080821115611c0e575f80fd5b50611c1b87828801611b78565b95989497509550505050565b600181811c90821680611c3b57607f821691505b602082108103611c5957634e487b7160e01b5f52602260045260245ffd5b50919050565b6020808252600e908201526d5661756c7420697320656d70747960901b604082015260600190565b634e487b7160e01b5f52601160045260245ffd5b808202811582820484141761068f5761068f611c87565b5f82611ccc57634e487b7160e01b5f52601260045260245ffd5b500490565b5f60208284031215611ce1575f80fd5b5051919050565b8082018082111561068f5761068f611c87565b8181038181111561068f5761068f611c87565b634e487b7160e01b5f52603260045260245ffd5b5f60018201611d3357611d33611c87565b5060010190565b634e487b7160e01b5f52603160045260245ffdfea264697066735822122077a7823e8ee0812b5fcf86d6d187801a455511dcdc3ae77b213a317c07f958f264736f6c63430008140033","linkReferences":{}},"methodIdentifiers":{"allowance(address,address)":"dd62ed3e","approve(address,uint256)":"095ea7b3","balanceOf(address)":"70a08231","batchUpdateUserWeights(address[],uint256[])":"e913ff98","decimals()":"313ce567","depositNative(address)":"33bb7f91","epochBaseline()":"5dfd244c","epochTotalSupply()":"1ce72170","getUsers()":"00ce8e3e","name()":"06fdde03","owner()":"8da5cb5b","previewDeposit(uint256)":"ef8b30f7","previewMint(uint256)":"b3d7f6b9","previewRedeem(uint256)":"4cdad506","previewWithdraw(uint256)":"0a28a477","renounceOwnership()":"715018a6","stakedMON()":"c5bde1f0","symbol()":"95d89b41","totalMON()":"b9d27781","totalSupply()":"18160ddd","totalshMON()":"afed7bc9","transfer(address,uint256)":"a9059cbb","transferFrom(address,address,uint256)":"23b872dd","transferOwnership(address)":"f2fde38b","updateEpoch()":"36f4fb02","updateUserWeight(address,uint256)":"fccfe94c","userExists(address)":"0e666e49","userWeights(address)":"556a6d8a","users(uint256)":"365b98b2","withdrawNative(uint256,address,address)":"2126e91e"},"id":27}