{"abi":[{"type":"constructor","inputs":[{"name":"_stakedMON","type":"address","internalType":"address"}],"stateMutability":"nonpayable"},{"type":"receive","stateMutability":"payable"},{"type":"function","name":"allowance","inputs":[{"name":"owner","type":"address","internalType":"address"},{"name":"spender","type":"address","internalType":"address"}],"outputs":[{"name":"","type":"uint256","internalType":"uint256"}],"stateMutability":"view"},{"type":"function","name":"approve","inputs":[{"name":"spender","type":"address","internalType":"address"},{"name":"value","type":"uint256","internalType":"uint256"}],"outputs":[{"name":"","type":"bool","internalType":"bool"}],"stateMutability":"nonpayable"},{"type":"function","name":"balanceOf","inputs":[{"name":"account","type":"address","internalType":"address"}],"outputs":[{"name":"","type":"uint256","internalType":"uint256"}],"stateMutability":"view"},{"type":"function","name":"batchUpdateUserWeights","inputs":[{"name":"_users","type":"address[]","internalType":"address[]"},{"name":"weights","type":"uint256[]","internalType":"uint256[]"}],"outputs":[],"stateMutability":"nonpayable"},{"type":"function","name":"decimals","inputs":[],"outputs":[{"name":"","type":"uint8","internalType":"uint8"}],"stateMutability":"view"},{"type":"function","name":"depositNative","inputs":[{"name":"receiver","type":"address","internalType":"address"}],"outputs":[{"name":"shares","type":"uint256","internalType":"uint256"}],"stateMutability":"payable"},{"type":"function","name":"epochBaseline","inputs":[],"outputs":[{"name":"","type":"uint256","internalType":"uint256"}],"stateMutability":"view"},{"type":"function","name":"epochTotalSupply","inputs":[],"outputs":[{"name":"","type":"uint256","internalType":"uint256"}],"stateMutability":"view"},{"type":"function","name":"name","inputs":[],"outputs":[{"name":"","type":"string","internalType":"string"}],"stateMutability":"view"},{"type":"function","name":"owner","inputs":[],"outputs":[{"name":"","type":"address","internalType":"address"}],"stateMutability":"view"},{"type":"function","name":"previewDeposit","inputs":[{"name":"assets","type":"uint256","internalType":"uint256"}],"outputs":[{"name":"shares","type":"uint256","internalType":"uint256"}],"stateMutability":"view"},{"type":"function","name":"previewMint","inputs":[{"name":"shares","type":"uint256","internalType":"uint256"}],"outputs":[{"name":"assets","type":"uint256","internalType":"uint256"}],"stateMutability":"view"},{"type":"function","name":"previewRedeem","inputs":[{"name":"shares","type":"uint256","internalType":"uint256"}],"outputs":[{"name":"assets","type":"uint256","internalType":"uint256"}],"stateMutability":"view"},{"type":"function","name":"previewWithdraw","inputs":[{"name":"assets","type":"uint256","internalType":"uint256"}],"outputs":[{"name":"shares","type":"uint256","internalType":"uint256"}],"stateMutability":"view"},{"type":"function","name":"renounceOwnership","inputs":[],"outputs":[],"stateMutability":"nonpayable"},{"type":"function","name":"stakedMON","inputs":[],"outputs":[{"name":"","type":"address","internalType":"contract IStakedMON"}],"stateMutability":"view"},{"type":"function","name":"symbol","inputs":[],"outputs":[{"name":"","type":"string","internalType":"string"}],"stateMutability":"view"},{"type":"function","name":"totalMON","inputs":[],"outputs":[{"name":"","type":"uint256","internalType":"uint256"}],"stateMutability":"view"},{"type":"function","name":"totalSupply","inputs":[],"outputs":[{"name":"","type":"uint256","internalType":"uint256"}],"stateMutability":"view"},{"type":"function","name":"totalshMON","inputs":[],"outputs":[{"name":"","type":"uint256","internalType":"uint256"}],"stateMutability":"view"},{"type":"function","name":"transfer","inputs":[{"name":"to","type":"address","internalType":"address"},{"name":"value","type":"uint256","internalType":"uint256"}],"outputs":[{"name":"","type":"bool","internalType":"bool"}],"stateMutability":"nonpayable"},{"type":"function","name":"transferFrom","inputs":[{"name":"from","type":"address","internalType":"address"},{"name":"to","type":"address","internalType":"address"},{"name":"value","type":"uint256","internalType":"uint256"}],"outputs":[{"name":"","type":"bool","internalType":"bool"}],"stateMutability":"nonpayable"},{"type":"function","name":"transferOwnership","inputs":[{"name":"newOwner","type":"address","internalType":"address"}],"outputs":[],"stateMutability":"nonpayable"},{"type":"function","name":"updateEpoch","inputs":[],"outputs":[],"stateMutability":"nonpayable"},{"type":"function","name":"updateUserWeight","inputs":[{"name":"user","type":"address","internalType":"address"},{"name":"weight","type":"uint256","internalType":"uint256"}],"outputs":[],"stateMutability":"nonpayable"},{"type":"function","name":"userExists","inputs":[{"name":"","type":"address","internalType":"address"}],"outputs":[{"name":"","type":"bool","internalType":"bool"}],"stateMutability":"view"},{"type":"function","name":"userWeights","inputs":[{"name":"","type":"address","internalType":"address"}],"outputs":[{"name":"","type":"uint256","internalType":"uint256"}],"stateMutability":"view"},{"type":"function","name":"users","inputs":[{"name":"","type":"uint256","internalType":"uint256"}],"outputs":[{"name":"","type":"address","internalType":"address"}],"stateMutability":"view"},{"type":"function","name":"withdrawNative","inputs":[{"name":"shares","type":"uint256","internalType":"uint256"},{"name":"receiver","type":"address","internalType":"address"},{"name":"owner","type":"address","internalType":"address"}],"outputs":[{"name":"monAmount","type":"uint256","internalType":"uint256"}],"stateMutability":"nonpayable"},{"type":"event","name":"Approval","inputs":[{"name":"owner","type":"address","indexed":true,"internalType":"address"},{"name":"spender","type":"address","indexed":true,"internalType":"address"},{"name":"value","type":"uint256","indexed":false,"internalType":"uint256"}],"anonymous":false},{"type":"event","name":"EpochBaselineUpdated","inputs":[{"name":"oldBaseline","type":"uint256","indexed":false,"internalType":"uint256"},{"name":"newBaseline","type":"uint256","indexed":false,"internalType":"uint256"},{"name":"newTotalSupply","type":"uint256","indexed":false,"internalType":"uint256"}],"anonymous":false},{"type":"event","name":"EpochUpdated","inputs":[{"name":"newEpochBaseline","type":"uint256","indexed":false,"internalType":"uint256"},{"name":"newEpochTotalSupply","type":"uint256","indexed":false,"internalType":"uint256"}],"anonymous":false},{"type":"event","name":"OwnershipTransferred","inputs":[{"name":"previousOwner","type":"address","indexed":true,"internalType":"address"},{"name":"newOwner","type":"address","indexed":true,"internalType":"address"}],"anonymous":false},{"type":"event","name":"Staked","inputs":[{"name":"user","type":"address","indexed":true,"internalType":"address"},{"name":"amount","type":"uint256","indexed":false,"internalType":"uint256"}],"anonymous":false},{"type":"event","name":"Transfer","inputs":[{"name":"from","type":"address","indexed":true,"internalType":"address"},{"name":"to","type":"address","indexed":true,"internalType":"address"},{"name":"value","type":"uint256","indexed":false,"internalType":"uint256"}],"anonymous":false},{"type":"event","name":"Unstaked","inputs":[{"name":"user","type":"address","indexed":true,"internalType":"address"},{"name":"amount","type":"uint256","indexed":false,"internalType":"uint256"}],"anonymous":false},{"type":"event","name":"UserWeightUpdated","inputs":[{"name":"user","type":"address","indexed":true,"internalType":"address"},{"name":"newWeight","type":"uint256","indexed":false,"internalType":"uint256"}],"anonymous":false},{"type":"error","name":"ERC20InsufficientAllowance","inputs":[{"name":"spender","type":"address","internalType":"address"},{"name":"allowance","type":"uint256","internalType":"uint256"},{"name":"needed","type":"uint256","internalType":"uint256"}]},{"type":"error","name":"ERC20InsufficientBalance","inputs":[{"name":"sender","type":"address","internalType":"address"},{"name":"balance","type":"uint256","internalType":"uint256"},{"name":"needed","type":"uint256","internalType":"uint256"}]},{"type":"error","name":"ERC20InvalidApprover","inputs":[{"name":"approver","type":"address","internalType":"address"}]},{"type":"error","name":"ERC20InvalidReceiver","inputs":[{"name":"receiver","type":"address","internalType":"address"}]},{"type":"error","name":"ERC20InvalidSender","inputs":[{"name":"sender","type":"address","internalType":"address"}]},{"type":"error","name":"ERC20InvalidSpender","inputs":[{"name":"spender","type":"address","internalType":"address"}]},{"type":"error","name":"OwnableInvalidOwner","inputs":[{"name":"owner","type":"address","internalType":"address"}]},{"type":"error","name":"OwnableUnauthorizedAccount","inputs":[{"name":"account","type":"address","internalType":"address"}]},{"type":"error","name":"ReentrancyGuardReentrantCall","inputs":[]}],"bytecode":{"object":"0x60a060405234801562000010575f80fd5b506040516200201d3803806200201d83398101604081905262000033916200019b565b336040518060400160405280600a81526020016923b0b6b136329026a7a760b11b8152506040518060400160405280600481526020016333a6a7a760e11b81525081600390816200008591906200026a565b5060046200009482826200026a565b5050506001600160a01b038116620000c657604051631e4fbdf760e01b81525f60048201526024015b60405180910390fd5b620000d1816200014a565b5060016006556001600160a01b0381166200012f5760405162461bcd60e51b815260206004820181905260248201527f7374616b65644d4f4e20616464726573732063616e6e6f74206265207a65726f6044820152606401620000bd565b6001600160a01b03166080525f600a819055600b5562000332565b600580546001600160a01b038381166001600160a01b0319831681179093556040519116919082907f8be0079c531659141344cd1fd0a4f28419497f9722a3daafe3b4186f6b6457e0905f90a35050565b5f60208284031215620001ac575f80fd5b81516001600160a01b0381168114620001c3575f80fd5b9392505050565b634e487b7160e01b5f52604160045260245ffd5b600181811c90821680620001f357607f821691505b6020821081036200021257634e487b7160e01b5f52602260045260245ffd5b50919050565b601f82111562000265575f81815260208120601f850160051c81016020861015620002405750805b601f850160051c820191505b8181101562000261578281556001016200024c565b5050505b505050565b81516001600160401b03811115620002865762000286620001ca565b6200029e81620002978454620001de565b8462000218565b602080601f831160018114620002d4575f8415620002bc5750858301515b5f19600386901b1c1916600185901b17855562000261565b5f85815260208120601f198616915b828110156200030457888601518255948401946001909101908401620002e3565b50858210156200032257878501515f19600388901b60f8161c191681555b5050505050600190811b01905550565b608051611cb6620003675f395f81816104ad015281816107b801528181610b37015281816110d901526111860152611cb65ff3fe6080604052600436106101bd575f3560e01c80635dfd244c116100f2578063b3d7f6b911610092578063e913ff9811610062578063e913ff98146104ee578063ef8b30f71461050d578063f2fde38b1461052c578063fccfe94c1461054b575f80fd5b8063b3d7f6b914610469578063b9d2778114610488578063c5bde1f01461049c578063dd62ed3e146104cf575f80fd5b80638da5cb5b116100cd5780638da5cb5b1461040557806395d89b4114610422578063a9059cbb14610436578063afed7bc914610455575f80fd5b80635dfd244c146103a857806370a08231146103bd578063715018a6146103f1575f80fd5b806323b872dd1161015d578063365b98b211610138578063365b98b21461031157806336f4fb02146103485780634cdad5061461035e578063556a6d8a1461037d575f80fd5b806323b872dd146102c4578063313ce567146102e357806333bb7f91146102fe575f80fd5b80630e666e49116101985780630e666e491461024e57806318160ddd1461027c5780631ce72170146102905780632126e91e146102a5575f80fd5b806306fdde03146101c8578063095ea7b3146101f25780630a28a47714610221575f80fd5b366101c457005b5f80fd5b3480156101d3575f80fd5b506101dc61056a565b6040516101e9919061194e565b60405180910390f35b3480156101fd575f80fd5b5061021161020c3660046119af565b6105fa565b60405190151581526020016101e9565b34801561022c575f80fd5b5061024061023b3660046119d7565b610613565b6040519081526020016101e9565b348015610259575f80fd5b506102116102683660046119ee565b60096020525f908152604090205460ff1681565b348015610287575f80fd5b50600254610240565b34801561029b575f80fd5b50610240600b5481565b3480156102b0575f80fd5b506102406102bf366004611a07565b61067b565b3480156102cf575f80fd5b506102116102de366004611a40565b610a97565b3480156102ee575f80fd5b50604051601281526020016101e9565b61024061030c3660046119ee565b610aba565b34801561031c575f80fd5b5061033061032b3660046119d7565b610d2a565b6040516001600160a01b0390911681526020016101e9565b348015610353575f80fd5b5061035c610d52565b005b348015610369575f80fd5b506102406103783660046119d7565b61105e565b348015610388575f80fd5b506102406103973660046119ee565b60076020525f908152604090205481565b3480156103b3575f80fd5b50610240600a5481565b3480156103c8575f80fd5b506102406103d73660046119ee565b6001600160a01b03165f9081526020819052604090205490565b3480156103fc575f80fd5b5061035c611095565b348015610410575f80fd5b506005546001600160a01b0316610330565b34801561042d575f80fd5b506101dc6110a6565b348015610441575f80fd5b506102116104503660046119af565b6110b5565b348015610460575f80fd5b506102406110c2565b348015610474575f80fd5b506102406104833660046119d7565b611150565b348015610493575f80fd5b50610240611183565b3480156104a7575f80fd5b506103307f000000000000000000000000000000000000000000000000000000000000000081565b3480156104da575f80fd5b506102406104e9366004611a79565b6111d9565b3480156104f9575f80fd5b5061035c610508366004611af2565b611203565b348015610518575f80fd5b506102406105273660046119d7565b61135a565b348015610537575f80fd5b5061035c6105463660046119ee565b611387565b348015610556575f80fd5b5061035c6105653660046119af565b6113c4565b60606003805461057990611b59565b80601f01602080910402602001604051908101604052809291908181526020018280546105a590611b59565b80156105f05780601f106105c7576101008083540402835291602001916105f0565b820191905f5260205f20905b8154815290600101906020018083116105d357829003601f168201915b5050505050905090565b5f33610607818585611424565b60019150505b92915050565b5f8061061d611183565b90505f61062960025490565b90505f8211801561063957505f81115b61065e5760405162461bcd60e51b815260040161065590611b91565b60405180910390fd5b816106698286611bcd565b6106739190611be4565b949350505050565b5f610684611436565b5f84116106d35760405162461bcd60e51b815260206004820152601860248201527f43616e6e6f7420776974686472617720302073686172657300000000000000006044820152606401610655565b5f6106dd60025490565b90505f6106e86110c2565b90505f82116107095760405162461bcd60e51b815260040161065590611b91565b5f826107158389611bcd565b61071f9190611be4565b90505f81116107665760405162461bcd60e51b8152602060048201526013602482015272496e73756666696369656e742061737365747360681b6044820152606401610655565b336001600160a01b03861614610798575f61078186336111d9565b90505f1981146107965761079686338a611460565b505b6107a285886114c3565b6040516303d1689d60e11b8152600481018290527f00000000000000000000000000000000000000000000000000000000000000006001600160a01b03169063b460af949082906307a2d13a90602401602060405180830381865afa15801561080d573d5f803e3d5ffd5b505050506040513d601f19601f820116820180604052508101906108319190611c03565b6040516001600160e01b031960e084901b1681526004810191909152306024820181905260448201526064016020604051808303815f875af1158015610879573d5f803e3d5ffd5b505050506040513d601f19601f8201168201806040525081019061089d9190611c03565b9350846001600160a01b03167f0f5bb82176feb1b5e747e28471aa92156a04d9f3ab9f45f28e2d704232b93f75856040516108da91815260200190565b60405180910390a25f866001600160a01b0316856040515f6040518083038185875af1925050503d805f811461092b576040519150601f19603f3d011682016040523d82523d5f602084013e610930565b606091505b50509050806109815760405162461bcd60e51b815260206004820152601c60248201527f4e617469766520746f6b656e207472616e73666572206661696c6564000000006044820152606401610655565b6001600160a01b0386165f908152602081905260409020541580156109bd57506001600160a01b0386165f9081526009602052604090205460ff165b156109cb576109cb866114fb565b600a5415610a82575f6109de8986611c1a565b6109f08a670de0b6b3a7640000611bcd565b6109fa9190611be4565b90505f670de0b6b3a764000082600a54610a149190611bcd565b610a1e9190611be4565b600a54909150610a2e8282611c2d565b600a55600254600b819055600a546040805184815260208101929092528101919091527f94539a67a2d2833b72450db379dcc24553051fa853d5a4f3958953787b3b1ffc9060600160405180910390a15050505b50505050610a906001600655565b9392505050565b5f33610aa4858285611460565b610aaf858585611647565b506001949350505050565b5f610ac3611436565b3480610b115760405162461bcd60e51b815260206004820152601760248201527f43616e6e6f74206465706f7369742030206173736574730000000000000000006044820152606401610655565b604051636e553f6560e01b8152600481018290523060248201525f906001600160a01b037f00000000000000000000000000000000000000000000000000000000000000001690636e553f6590849060440160206040518083038185885af1158015610b7f573d5f803e3d5ffd5b50505050506040513d601f19601f82011682018060405250810190610ba49190611c03565b90505f610bb060025490565b90505f610bbb6110c2565b9050811580610bc8575080155b15610bd557829450610bed565b80610be08385611bcd565b610bea9190611be4565b94505b610bf786866116a4565b6001600160a01b0386165f9081526009602052604090205460ff16610cb9576008805460018082019092557ff3f7a9fe364faab93b216da50a3214154f22a0a2b415b23a84c8169e8b636ee30180546001600160a01b0319166001600160a01b0389169081179091555f818152600960209081526040808320805460ff191690951790945560078152838220829055925190815290917f7ca6e49b5dd57ed6bb41185c3183b042bbbbb1ba4b421fff5cfa24619ae1a8ee910160405180910390a25b856001600160a01b03167f9e71bc8eea02a63969f509818f2dafb9254532904319f9dbda79b67bd34a5f3d84604051610cf491815260200190565b60405180910390a2600b545f03610d1757610d0d611183565b600a55600254600b555b50505050610d256001600655565b919050565b60088181548110610d39575f80fd5b5f918252602090912001546001600160a01b0316905081565b610d5a6116d8565b610d62611436565b5f610d6b611183565b9050600a548111610dca5760405162461bcd60e51b815260206004820152602360248201527f4e6f207265776172647320617661696c61626c6520666f7220746869732065706044820152620dec6d60eb1b6064820152608401610655565b5f600a5482610dd99190611c2d565b90505f805b600854811015610ea3575f60088281548110610dfc57610dfc611c40565b5f9182526020822001546001600160a01b03169150610e2f826001600160a01b03165f9081526020819052604090205490565b9050805f03610e3f575050610e91565b5f600b54600a5483610e519190611bcd565b610e5b9190611be4565b6001600160a01b0384165f90815260076020526040902054909150610e81908290611bcd565b610e8b9086611c1a565b94505050505b80610e9b81611c54565b915050610dde565b505f8111610ef35760405162461bcd60e51b815260206004820181905260248201527f4e6f20656c696769626c65206465706f7369747320666f7220726577617264736044820152606401610655565b5f5b600854811015610ffa575f60088281548110610f1357610f13611c40565b5f9182526020822001546001600160a01b03169150610f46826001600160a01b03165f9081526020819052604090205490565b9050805f03610f56575050610fe8565b5f600b54600a5483610f689190611bcd565b610f729190611be4565b6001600160a01b0384165f9081526007602052604081205491925090610f99908390611bcd565b90505f86610fa7838a611bcd565b610fb19190611be4565b90505f600a5482600b54610fc59190611bcd565b610fcf9190611be4565b90508015610fe157610fe186826116a4565b5050505050505b80610ff281611c54565b915050610ef5565b50611003611183565b600a55600254600b819055600a546040517fabb37912485bfb13380247be2f4101619759991c9a13ef282eeb05108378b57992611047928252602082015260400190565b60405180910390a150505061105c6001600655565b565b5f8061106960025490565b90505f611074611183565b90505f821161065e5760405162461bcd60e51b815260040161065590611b91565b61109d6116d8565b61105c5f611705565b60606004805461057990611b59565b5f33610607818585611647565b6040516370a0823160e01b81523060048201525f907f00000000000000000000000000000000000000000000000000000000000000006001600160a01b0316906370a08231906024015b602060405180830381865afa158015611127573d5f803e3d5ffd5b505050506040513d601f19601f8201168201806040525081019061114b9190611c03565b905090565b5f8061115b60025490565b90505f611166611183565b9050811580611173575080155b1561065e578392505b5050919050565b5f7f00000000000000000000000000000000000000000000000000000000000000006001600160a01b03166307a2d13a6111bb6110c2565b6040518263ffffffff1660e01b815260040161110c91815260200190565b6001600160a01b039182165f90815260016020908152604080832093909416825291909152205490565b61120b6116d8565b82811461125a5760405162461bcd60e51b815260206004820152601860248201527f4172726179206c656e67746873206d757374206d6174636800000000000000006044820152606401610655565b5f5b838110156113535782828281811061127657611276611c40565b9050602002013560075f87878581811061129257611292611c40565b90506020020160208101906112a791906119ee565b6001600160a01b0316815260208101919091526040015f20558484828181106112d2576112d2611c40565b90506020020160208101906112e791906119ee565b6001600160a01b03167f7ca6e49b5dd57ed6bb41185c3183b042bbbbb1ba4b421fff5cfa24619ae1a8ee84848481811061132357611323611c40565b9050602002013560405161133991815260200190565b60405180910390a28061134b81611c54565b91505061125c565b5050505050565b5f80611364611183565b90505f61137060025490565b905080158061117357508161065e5783925061117c565b61138f6116d8565b6001600160a01b0381166113b857604051631e4fbdf760e01b81525f6004820152602401610655565b6113c181611705565b50565b6113cc6116d8565b6001600160a01b0382165f8181526007602052604090819020839055517f7ca6e49b5dd57ed6bb41185c3183b042bbbbb1ba4b421fff5cfa24619ae1a8ee906114189084815260200190565b60405180910390a25050565b6114318383836001611756565b505050565b60026006540361145957604051633ee5aeb560e01b815260040160405180910390fd5b6002600655565b5f61146b84846111d9565b90505f1981146114bd57818110156114af57604051637dc7a0d960e11b81526001600160a01b03841660048201526024810182905260448101839052606401610655565b6114bd84848484035f611756565b50505050565b6001600160a01b0382166114ec57604051634b637e8f60e11b81525f6004820152602401610655565b6114f7825f83611828565b5050565b6001600160a01b0381165f9081526009602052604090205460ff1661151d5750565b5f5b6008548110156114f757816001600160a01b03166008828154811061154657611546611c40565b5f918252602090912001546001600160a01b031603611635576008805461156f90600190611c2d565b8154811061157f5761157f611c40565b5f91825260209091200154600880546001600160a01b0390921691839081106115aa576115aa611c40565b905f5260205f20015f6101000a8154816001600160a01b0302191690836001600160a01b0316021790555060088054806115e6576115e6611c6c565b5f828152602080822083015f1990810180546001600160a01b03191690559092019092556001600160a01b038416825260078152604080832083905560099091529020805460ff191690555050565b8061163f81611c54565b91505061151f565b6001600160a01b03831661167057604051634b637e8f60e11b81525f6004820152602401610655565b6001600160a01b0382166116995760405163ec442f0560e01b81525f6004820152602401610655565b611431838383611828565b6001600160a01b0382166116cd5760405163ec442f0560e01b81525f6004820152602401610655565b6114f75f8383611828565b6005546001600160a01b0316331461105c5760405163118cdaa760e01b8152336004820152602401610655565b600580546001600160a01b038381166001600160a01b0319831681179093556040519116919082907f8be0079c531659141344cd1fd0a4f28419497f9722a3daafe3b4186f6b6457e0905f90a35050565b6001600160a01b03841661177f5760405163e602df0560e01b81525f6004820152602401610655565b6001600160a01b0383166117a857604051634a1406b160e11b81525f6004820152602401610655565b6001600160a01b038085165f90815260016020908152604080832093871683529290522082905580156114bd57826001600160a01b0316846001600160a01b03167f8c5be1e5ebec7d5bd14f71427d1e84f3dd0314c0f7b2291e5b200ac8c7c3b9258460405161181a91815260200190565b60405180910390a350505050565b6001600160a01b038316611852578060025f8282546118479190611c1a565b909155506118c29050565b6001600160a01b0383165f90815260208190526040902054818110156118a45760405163391434e360e21b81526001600160a01b03851660048201526024810182905260448101839052606401610655565b6001600160a01b0384165f9081526020819052604090209082900390555b6001600160a01b0382166118de576002805482900390556118fc565b6001600160a01b0382165f9081526020819052604090208054820190555b816001600160a01b0316836001600160a01b03167fddf252ad1be2c89b69c2b068fc378daa952ba7f163c4a11628f55a4df523b3ef8360405161194191815260200190565b60405180910390a3505050565b5f6020808352835180828501525f5b818110156119795785810183015185820160400152820161195d565b505f604082860101526040601f19601f8301168501019250505092915050565b80356001600160a01b0381168114610d25575f80fd5b5f80604083850312156119c0575f80fd5b6119c983611999565b946020939093013593505050565b5f602082840312156119e7575f80fd5b5035919050565b5f602082840312156119fe575f80fd5b610a9082611999565b5f805f60608486031215611a19575f80fd5b83359250611a2960208501611999565b9150611a3760408501611999565b90509250925092565b5f805f60608486031215611a52575f80fd5b611a5b84611999565b9250611a6960208501611999565b9150604084013590509250925092565b5f8060408385031215611a8a575f80fd5b611a9383611999565b9150611aa160208401611999565b90509250929050565b5f8083601f840112611aba575f80fd5b50813567ffffffffffffffff811115611ad1575f80fd5b6020830191508360208260051b8501011115611aeb575f80fd5b9250929050565b5f805f8060408587031215611b05575f80fd5b843567ffffffffffffffff80821115611b1c575f80fd5b611b2888838901611aaa565b90965094506020870135915080821115611b40575f80fd5b50611b4d87828801611aaa565b95989497509550505050565b600181811c90821680611b6d57607f821691505b602082108103611b8b57634e487b7160e01b5f52602260045260245ffd5b50919050565b6020808252600e908201526d5661756c7420697320656d70747960901b604082015260600190565b634e487b7160e01b5f52601160045260245ffd5b808202811582820484141761060d5761060d611bb9565b5f82611bfe57634e487b7160e01b5f52601260045260245ffd5b500490565b5f60208284031215611c13575f80fd5b5051919050565b8082018082111561060d5761060d611bb9565b8181038181111561060d5761060d611bb9565b634e487b7160e01b5f52603260045260245ffd5b5f60018201611c6557611c65611bb9565b5060010190565b634e487b7160e01b5f52603160045260245ffdfea2646970667358221220d6cfff9ef70edd427b1b0d41bf713e9ca221a5eb4114d93fdad51254e54f28e164736f6c63430008140033","linkReferences":{}},"methodIdentifiers":{"allowance(address,address)":"dd62ed3e","approve(address,uint256)":"095ea7b3","balanceOf(address)":"70a08231","batchUpdateUserWeights(address[],uint256[])":"e913ff98","decimals()":"313ce567","depositNative(address)":"33bb7f91","epochBaseline()":"5dfd244c","epochTotalSupply()":"1ce72170","name()":"06fdde03","owner()":"8da5cb5b","previewDeposit(uint256)":"ef8b30f7","previewMint(uint256)":"b3d7f6b9","previewRedeem(uint256)":"4cdad506","previewWithdraw(uint256)":"0a28a477","renounceOwnership()":"715018a6","stakedMON()":"c5bde1f0","symbol()":"95d89b41","totalMON()":"b9d27781","totalSupply()":"18160ddd","totalshMON()":"afed7bc9","transfer(address,uint256)":"a9059cbb","transferFrom(address,address,uint256)":"23b872dd","transferOwnership(address)":"f2fde38b","updateEpoch()":"36f4fb02","updateUserWeight(address,uint256)":"fccfe94c","userExists(address)":"0e666e49","userWeights(address)":"556a6d8a","users(uint256)":"365b98b2","withdrawNative(uint256,address,address)":"2126e91e"},"id":7}